{
  "_format": "hh-sol-artifact-1",
  "contractName": "BattleCardNFT",
  "sourceName": "contracts/BattleCardNFT.sol",
  "abi": [
    {
      "inputs": [],
      "stateMutability": "nonpayable",
      "type": "constructor"
    },
    {
      "inputs": [
        {
          "internalType": "address",
          "name": "sender",
          "type": "address"
        },
        {
          "internalType": "uint256",
          "name": "tokenId",
          "type": "uint256"
        },
        {
          "internalType": "address",
          "name": "owner",
          "type": "address"
        }
      ],
      "name": "ERC721IncorrectOwner",
      "type": "error"
    },
    {
      "inputs": [
        {
          "internalType": "address",
          "name": "operator",
          "type": "address"
        },
        {
          "internalType": "uint256",
          "name": "tokenId",
          "type": "uint256"
        }
      ],
      "name": "ERC721InsufficientApproval",
      "type": "error"
    },
    {
      "inputs": [
        {
          "internalType": "address",
          "name": "approver",
          "type": "address"
        }
      ],
      "name": "ERC721InvalidApprover",
      "type": "error"
    },
    {
      "inputs": [
        {
          "internalType": "address",
          "name": "operator",
          "type": "address"
        }
      ],
      "name": "ERC721InvalidOperator",
      "type": "error"
    },
    {
      "inputs": [
        {
          "internalType": "address",
          "name": "owner",
          "type": "address"
        }
      ],
      "name": "ERC721InvalidOwner",
      "type": "error"
    },
    {
      "inputs": [
        {
          "internalType": "address",
          "name": "receiver",
          "type": "address"
        }
      ],
      "name": "ERC721InvalidReceiver",
      "type": "error"
    },
    {
      "inputs": [
        {
          "internalType": "address",
          "name": "sender",
          "type": "address"
        }
      ],
      "name": "ERC721InvalidSender",
      "type": "error"
    },
    {
      "inputs": [
        {
          "internalType": "uint256",
          "name": "tokenId",
          "type": "uint256"
        }
      ],
      "name": "ERC721NonexistentToken",
      "type": "error"
    },
    {
      "anonymous": false,
      "inputs": [
        {
          "indexed": true,
          "internalType": "address",
          "name": "owner",
          "type": "address"
        },
        {
          "indexed": true,
          "internalType": "address",
          "name": "approved",
          "type": "address"
        },
        {
          "indexed": true,
          "internalType": "uint256",
          "name": "tokenId",
          "type": "uint256"
        }
      ],
      "name": "Approval",
      "type": "event"
    },
    {
      "anonymous": false,
      "inputs": [
        {
          "indexed": true,
          "internalType": "address",
          "name": "owner",
          "type": "address"
        },
        {
          "indexed": true,
          "internalType": "address",
          "name": "operator",
          "type": "address"
        },
        {
          "indexed": false,
          "internalType": "bool",
          "name": "approved",
          "type": "bool"
        }
      ],
      "name": "ApprovalForAll",
      "type": "event"
    },
    {
      "anonymous": false,
      "inputs": [
        {
          "indexed": false,
          "internalType": "uint256",
          "name": "_fromTokenId",
          "type": "uint256"
        },
        {
          "indexed": false,
          "internalType": "uint256",
          "name": "_toTokenId",
          "type": "uint256"
        }
      ],
      "name": "BatchMetadataUpdate",
      "type": "event"
    },
    {
      "anonymous": false,
      "inputs": [
        {
          "indexed": false,
          "internalType": "uint256",
          "name": "_tokenId",
          "type": "uint256"
        }
      ],
      "name": "MetadataUpdate",
      "type": "event"
    },
    {
      "anonymous": false,
      "inputs": [
        {
          "indexed": true,
          "internalType": "address",
          "name": "from",
          "type": "address"
        },
        {
          "indexed": true,
          "internalType": "address",
          "name": "to",
          "type": "address"
        },
        {
          "indexed": true,
          "internalType": "uint256",
          "name": "tokenId",
          "type": "uint256"
        }
      ],
      "name": "Transfer",
      "type": "event"
    },
    {
      "inputs": [
        {
          "internalType": "address",
          "name": "to",
          "type": "address"
        },
        {
          "internalType": "uint256",
          "name": "tokenId",
          "type": "uint256"
        }
      ],
      "name": "approve",
      "outputs": [],
      "stateMutability": "nonpayable",
      "type": "function"
    },
    {
      "inputs": [
        {
          "internalType": "address",
          "name": "owner",
          "type": "address"
        }
      ],
      "name": "balanceOf",
      "outputs": [
        {
          "internalType": "uint256",
          "name": "",
          "type": "uint256"
        }
      ],
      "stateMutability": "view",
      "type": "function"
    },
    {
      "inputs": [
        {
          "internalType": "uint256",
          "name": "tokenId",
          "type": "uint256"
        }
      ],
      "name": "getApproved",
      "outputs": [
        {
          "internalType": "address",
          "name": "",
          "type": "address"
        }
      ],
      "stateMutability": "view",
      "type": "function"
    },
    {
      "inputs": [
        {
          "internalType": "address",
          "name": "owner",
          "type": "address"
        },
        {
          "internalType": "address",
          "name": "operator",
          "type": "address"
        }
      ],
      "name": "isApprovedForAll",
      "outputs": [
        {
          "internalType": "bool",
          "name": "",
          "type": "bool"
        }
      ],
      "stateMutability": "view",
      "type": "function"
    },
    {
      "inputs": [
        {
          "internalType": "address",
          "name": "to",
          "type": "address"
        },
        {
          "internalType": "string",
          "name": "tokenURI",
          "type": "string"
        }
      ],
      "name": "mint",
      "outputs": [],
      "stateMutability": "nonpayable",
      "type": "function"
    },
    {
      "inputs": [],
      "name": "name",
      "outputs": [
        {
          "internalType": "string",
          "name": "",
          "type": "string"
        }
      ],
      "stateMutability": "view",
      "type": "function"
    },
    {
      "inputs": [
        {
          "internalType": "uint256",
          "name": "tokenId",
          "type": "uint256"
        }
      ],
      "name": "ownerOf",
      "outputs": [
        {
          "internalType": "address",
          "name": "",
          "type": "address"
        }
      ],
      "stateMutability": "view",
      "type": "function"
    },
    {
      "inputs": [
        {
          "internalType": "address",
          "name": "from",
          "type": "address"
        },
        {
          "internalType": "address",
          "name": "to",
          "type": "address"
        },
        {
          "internalType": "uint256",
          "name": "tokenId",
          "type": "uint256"
        }
      ],
      "name": "safeTransferFrom",
      "outputs": [],
      "stateMutability": "nonpayable",
      "type": "function"
    },
    {
      "inputs": [
        {
          "internalType": "address",
          "name": "from",
          "type": "address"
        },
        {
          "internalType": "address",
          "name": "to",
          "type": "address"
        },
        {
          "internalType": "uint256",
          "name": "tokenId",
          "type": "uint256"
        },
        {
          "internalType": "bytes",
          "name": "data",
          "type": "bytes"
        }
      ],
      "name": "safeTransferFrom",
      "outputs": [],
      "stateMutability": "nonpayable",
      "type": "function"
    },
    {
      "inputs": [
        {
          "internalType": "address",
          "name": "operator",
          "type": "address"
        },
        {
          "internalType": "bool",
          "name": "approved",
          "type": "bool"
        }
      ],
      "name": "setApprovalForAll",
      "outputs": [],
      "stateMutability": "nonpayable",
      "type": "function"
    },
    {
      "inputs": [
        {
          "internalType": "bytes4",
          "name": "interfaceId",
          "type": "bytes4"
        }
      ],
      "name": "supportsInterface",
      "outputs": [
        {
          "internalType": "bool",
          "name": "",
          "type": "bool"
        }
      ],
      "stateMutability": "view",
      "type": "function"
    },
    {
      "inputs": [],
      "name": "symbol",
      "outputs": [
        {
          "internalType": "string",
          "name": "",
          "type": "string"
        }
      ],
      "stateMutability": "view",
      "type": "function"
    },
    {
      "inputs": [
        {
          "internalType": "uint256",
          "name": "tokenId",
          "type": "uint256"
        }
      ],
      "name": "tokenURI",
      "outputs": [
        {
          "internalType": "string",
          "name": "",
          "type": "string"
        }
      ],
      "stateMutability": "view",
      "type": "function"
    },
    {
      "inputs": [],
      "name": "totalMinted",
      "outputs": [
        {
          "internalType": "uint256",
          "name": "",
          "type": "uint256"
        }
      ],
      "stateMutability": "view",
      "type": "function"
    },
    {
      "inputs": [
        {
          "internalType": "address",
          "name": "from",
          "type": "address"
        },
        {
          "internalType": "address",
          "name": "to",
          "type": "address"
        },
        {
          "internalType": "uint256",
          "name": "tokenId",
          "type": "uint256"
        }
      ],
      "name": "transferFrom",
      "outputs": [],
      "stateMutability": "nonpayable",
      "type": "function"
    }
  ],
  "bytecode": "0x608060405234801561001057600080fd5b506040518060400160405280600b81526020017f426174746c6520436172640000000000000000000000000000000000000000008152506040518060400160405280600481526020017f4341524400000000000000000000000000000000000000000000000000000000815250816000908161008c91906102f4565b50806001908161009c91906102f4565b5050506103c6565b600081519050919050565b7f4e487b7100000000000000000000000000000000000000000000000000000000600052604160045260246000fd5b7f4e487b7100000000000000000000000000000000000000000000000000000000600052602260045260246000fd5b6000600282049050600182168061012557607f821691505b602082108103610138576101376100de565b5b50919050565b60008190508160005260206000209050919050565b60006020601f8301049050919050565b600082821b905092915050565b6000600883026101a07fffffffffffffffffffffffffffffffffffffffffffffffffffffffffffffffff82610163565b6101aa8683610163565b95508019841693508086168417925050509392505050565b6000819050919050565b6000819050919050565b60006101f16101ec6101e7846101c2565b6101cc565b6101c2565b9050919050565b6000819050919050565b61020b836101d6565b61021f610217826101f8565b848454610170565b825550505050565b600090565b610234610227565b61023f818484610202565b505050565b5b818110156102635761025860008261022c565b600181019050610245565b5050565b601f8211156102a8576102798161013e565b61028284610153565b81016020851015610291578190505b6102a561029d85610153565b830182610244565b50505b505050565b600082821c905092915050565b60006102cb600019846008026102ad565b1980831691505092915050565b60006102e483836102ba565b9150826002028217905092915050565b6102fd826100a4565b67ffffffffffffffff811115610316576103156100af565b5b610320825461010d565b61032b828285610267565b600060209050601f83116001811461035e576000841561034c578287015190505b61035685826102d8565b8655506103be565b601f19841661036c8661013e565b60005b828110156103945784890151825560018201915060208501945060208101905061036f565b868310156103b157848901516103ad601f8916826102ba565b8355505b6001600288020188555050505b505050505050565b6123d7806103d56000396000f3fe608060405234801561001057600080fd5b50600436106100f55760003560e01c806370a0823111610097578063b88d4fde11610066578063b88d4fde14610284578063c87b56dd146102a0578063d0def521146102d0578063e985e9c5146102ec576100f5565b806370a08231146101fc57806395d89b411461022c578063a22cb4651461024a578063a2309ff814610266576100f5565b8063095ea7b3116100d3578063095ea7b31461017857806323b872dd1461019457806342842e0e146101b05780636352211e146101cc576100f5565b806301ffc9a7146100fa57806306fdde031461012a578063081812fc14610148575b600080fd5b610114600480360381019061010f919061182f565b61031c565b6040516101219190611877565b60405180910390f35b61013261037d565b60405161013f9190611922565b60405180910390f35b610162600480360381019061015d919061197a565b61040f565b60405161016f91906119e8565b60405180910390f35b610192600480360381019061018d9190611a2f565b61042b565b005b6101ae60048036038101906101a99190611a6f565b610441565b005b6101ca60048036038101906101c59190611a6f565b610543565b005b6101e660048036038101906101e1919061197a565b610563565b6040516101f391906119e8565b60405180910390f35b61021660048036038101906102119190611ac2565b610575565b6040516102239190611afe565b60405180910390f35b61023461062f565b6040516102419190611922565b60405180910390f35b610264600480360381019061025f9190611b45565b6106c1565b005b61026e6106d7565b60405161027b9190611afe565b60405180910390f35b61029e60048036038101906102999190611cba565b6106e1565b005b6102ba60048036038101906102b5919061197a565b610706565b6040516102c79190611922565b60405180910390f35b6102ea60048036038101906102e59190611dde565b610819565b005b61030660048036038101906103019190611e3a565b61084d565b6040516103139190611877565b60405180910390f35b6000634906490660e01b7bffffffffffffffffffffffffffffffffffffffffffffffffffffffff1916827bffffffffffffffffffffffffffffffffffffffffffffffffffffffff191614806103765750610375826108e1565b5b9050919050565b60606000805461038c90611ea9565b80601f01602080910402602001604051908101604052809291908181526020018280546103b890611ea9565b80156104055780601f106103da57610100808354040283529160200191610405565b820191906000526020600020905b8154815290600101906020018083116103e857829003601f168201915b5050505050905090565b600061041a826109c3565b5061042482610a4b565b9050919050565b61043d8282610438610a88565b610a90565b5050565b600073ffffffffffffffffffffffffffffffffffffffff168273ffffffffffffffffffffffffffffffffffffffff16036104b35760006040517f64a0ae920000000000000000000000000000000000000000000000000000000081526004016104aa91906119e8565b60405180910390fd5b60006104c783836104c2610a88565b610aa2565b90508373ffffffffffffffffffffffffffffffffffffffff168173ffffffffffffffffffffffffffffffffffffffff161461053d578382826040517f64283d7b00000000000000000000000000000000000000000000000000000000815260040161053493929190611eda565b60405180910390fd5b50505050565b61055e838383604051806020016040528060008152506106e1565b505050565b600061056e826109c3565b9050919050565b60008073ffffffffffffffffffffffffffffffffffffffff168273ffffffffffffffffffffffffffffffffffffffff16036105e85760006040517f89c62b640000000000000000000000000000000000000000000000000000000081526004016105df91906119e8565b60405180910390fd5b600360008373ffffffffffffffffffffffffffffffffffffffff1673ffffffffffffffffffffffffffffffffffffffff168152602001908152602001600020549050919050565b60606001805461063e90611ea9565b80601f016020809104026020016040519081016040528092919081815260200182805461066a90611ea9565b80156106b75780601f1061068c576101008083540402835291602001916106b7565b820191906000526020600020905b81548152906001019060200180831161069a57829003601f168201915b5050505050905090565b6106d36106cc610a88565b8383610cbc565b5050565b6000600754905090565b6106ec848484610441565b6107006106f7610a88565b85858585610e2b565b50505050565b6060610711826109c3565b50600060066000848152602001908152602001600020805461073290611ea9565b80601f016020809104026020016040519081016040528092919081815260200182805461075e90611ea9565b80156107ab5780601f10610780576101008083540402835291602001916107ab565b820191906000526020600020905b81548152906001019060200180831161078e57829003601f168201915b5050505050905060006107bc610fdc565b905060008151036107d1578192505050610814565b6000825111156108065780826040516020016107ee929190611f4d565b60405160208183030381529060405292505050610814565b61080f84610ff3565b925050505b919050565b60006007600081548092919061082e90611fa0565b91905055905061083e838261105c565b6108488183611155565b505050565b6000600560008473ffffffffffffffffffffffffffffffffffffffff1673ffffffffffffffffffffffffffffffffffffffff16815260200190815260200160002060008373ffffffffffffffffffffffffffffffffffffffff1673ffffffffffffffffffffffffffffffffffffffff16815260200190815260200160002060009054906101000a900460ff16905092915050565b60007f80ac58cd000000000000000000000000000000000000000000000000000000007bffffffffffffffffffffffffffffffffffffffffffffffffffffffff1916827bffffffffffffffffffffffffffffffffffffffffffffffffffffffff191614806109ac57507f5b5e139f000000000000000000000000000000000000000000000000000000007bffffffffffffffffffffffffffffffffffffffffffffffffffffffff1916827bffffffffffffffffffffffffffffffffffffffffffffffffffffffff1916145b806109bc57506109bb826111b1565b5b9050919050565b6000806109cf8361121b565b9050600073ffffffffffffffffffffffffffffffffffffffff168173ffffffffffffffffffffffffffffffffffffffff1603610a4257826040517f7e273289000000000000000000000000000000000000000000000000000000008152600401610a399190611afe565b60405180910390fd5b80915050919050565b60006004600083815260200190815260200160002060009054906101000a900473ffffffffffffffffffffffffffffffffffffffff169050919050565b600033905090565b610a9d8383836001611258565b505050565b600080610aae8461121b565b9050600073ffffffffffffffffffffffffffffffffffffffff168373ffffffffffffffffffffffffffffffffffffffff1614610af057610aef81848661141d565b5b600073ffffffffffffffffffffffffffffffffffffffff168173ffffffffffffffffffffffffffffffffffffffff1614610b8157610b32600085600080611258565b6001600360008373ffffffffffffffffffffffffffffffffffffffff1673ffffffffffffffffffffffffffffffffffffffff168152602001908152602001600020600082825403925050819055505b600073ffffffffffffffffffffffffffffffffffffffff168573ffffffffffffffffffffffffffffffffffffffff1614610c04576001600360008773ffffffffffffffffffffffffffffffffffffffff1673ffffffffffffffffffffffffffffffffffffffff168152602001908152602001600020600082825401925050819055505b846002600086815260200190815260200160002060006101000a81548173ffffffffffffffffffffffffffffffffffffffff021916908373ffffffffffffffffffffffffffffffffffffffff160217905550838573ffffffffffffffffffffffffffffffffffffffff168273ffffffffffffffffffffffffffffffffffffffff167fddf252ad1be2c89b69c2b068fc378daa952ba7f163c4a11628f55a4df523b3ef60405160405180910390a4809150509392505050565b600073ffffffffffffffffffffffffffffffffffffffff168273ffffffffffffffffffffffffffffffffffffffff1603610d2d57816040517f5b08ba18000000000000000000000000000000000000000000000000000000008152600401610d2491906119e8565b60405180910390fd5b80600560008573ffffffffffffffffffffffffffffffffffffffff1673ffffffffffffffffffffffffffffffffffffffff16815260200190815260200160002060008473ffffffffffffffffffffffffffffffffffffffff1673ffffffffffffffffffffffffffffffffffffffff16815260200190815260200160002060006101000a81548160ff0219169083151502179055508173ffffffffffffffffffffffffffffffffffffffff168373ffffffffffffffffffffffffffffffffffffffff167f17307eab39ab6107e8899845ad3d59bd9653f200f220920489ca2b5937696c3183604051610e1e9190611877565b60405180910390a3505050565b60008373ffffffffffffffffffffffffffffffffffffffff163b1115610fd5578273ffffffffffffffffffffffffffffffffffffffff1663150b7a02868685856040518563ffffffff1660e01b8152600401610e8a949392919061203d565b6020604051808303816000875af1925050508015610ec657506040513d601f19601f82011682018060405250810190610ec3919061209e565b60015b610f4a573d8060008114610ef6576040519150601f19603f3d011682016040523d82523d6000602084013e610efb565b606091505b506000815103610f4257836040517f64a0ae92000000000000000000000000000000000000000000000000000000008152600401610f3991906119e8565b60405180910390fd5b805181602001fd5b63150b7a0260e01b7bffffffffffffffffffffffffffffffffffffffffffffffffffffffff1916817bffffffffffffffffffffffffffffffffffffffffffffffffffffffff191614610fd357836040517f64a0ae92000000000000000000000000000000000000000000000000000000008152600401610fca91906119e8565b60405180910390fd5b505b5050505050565b606060405180602001604052806000815250905090565b6060610ffe826109c3565b506000611009610fdc565b905060008151116110295760405180602001604052806000815250611054565b80611033846114e1565b604051602001611044929190611f4d565b6040516020818303038152906040525b915050919050565b600073ffffffffffffffffffffffffffffffffffffffff168273ffffffffffffffffffffffffffffffffffffffff16036110ce5760006040517f64a0ae920000000000000000000000000000000000000000000000000000000081526004016110c591906119e8565b60405180910390fd5b60006110dc83836000610aa2565b9050600073ffffffffffffffffffffffffffffffffffffffff168173ffffffffffffffffffffffffffffffffffffffff16146111505760006040517f73c6ac6e00000000000000000000000000000000000000000000000000000000815260040161114791906119e8565b60405180910390fd5b505050565b806006600084815260200190815260200160002090816111759190612277565b507ff8e1a15aba9398e019f0b49df1a4fde98ee17ae345cb5f6b5e2c27f5033e8ce7826040516111a59190611afe565b60405180910390a15050565b60007f01ffc9a7000000000000000000000000000000000000000000000000000000007bffffffffffffffffffffffffffffffffffffffffffffffffffffffff1916827bffffffffffffffffffffffffffffffffffffffffffffffffffffffff1916149050919050565b60006002600083815260200190815260200160002060009054906101000a900473ffffffffffffffffffffffffffffffffffffffff169050919050565b80806112915750600073ffffffffffffffffffffffffffffffffffffffff168273ffffffffffffffffffffffffffffffffffffffff1614155b156113c55760006112a1846109c3565b9050600073ffffffffffffffffffffffffffffffffffffffff168373ffffffffffffffffffffffffffffffffffffffff161415801561130c57508273ffffffffffffffffffffffffffffffffffffffff168173ffffffffffffffffffffffffffffffffffffffff1614155b801561131f575061131d818461084d565b155b1561136157826040517fa9fbf51f00000000000000000000000000000000000000000000000000000000815260040161135891906119e8565b60405180910390fd5b81156113c357838573ffffffffffffffffffffffffffffffffffffffff168273ffffffffffffffffffffffffffffffffffffffff167f8c5be1e5ebec7d5bd14f71427d1e84f3dd0314c0f7b2291e5b200ac8c7c3b92560405160405180910390a45b505b836004600085815260200190815260200160002060006101000a81548173ffffffffffffffffffffffffffffffffffffffff021916908373ffffffffffffffffffffffffffffffffffffffff16021790555050505050565b6114288383836115af565b6114dc57600073ffffffffffffffffffffffffffffffffffffffff168373ffffffffffffffffffffffffffffffffffffffff160361149d57806040517f7e2732890000000000000000000000000000000000000000000000000000000081526004016114949190611afe565b60405180910390fd5b81816040517f177e802f0000000000000000000000000000000000000000000000000000000081526004016114d3929190612349565b60405180910390fd5b505050565b6060600060016114f084611670565b01905060008167ffffffffffffffff81111561150f5761150e611b8f565b5b6040519080825280601f01601f1916602001820160405280156115415781602001600182028036833780820191505090505b509050600082602001820190505b6001156115a4578080600190039150507f3031323334353637383961626364656600000000000000000000000000000000600a86061a8153600a858161159857611597612372565b5b0494506000850361154f575b819350505050919050565b60008073ffffffffffffffffffffffffffffffffffffffff168373ffffffffffffffffffffffffffffffffffffffff161415801561166757508273ffffffffffffffffffffffffffffffffffffffff168473ffffffffffffffffffffffffffffffffffffffff1614806116285750611627848461084d565b5b8061166657508273ffffffffffffffffffffffffffffffffffffffff1661164e83610a4b565b73ffffffffffffffffffffffffffffffffffffffff16145b5b90509392505050565b600080600090507a184f03e93ff9f4daa797ed6e38ed64bf6a1f01000000000000000083106116ce577a184f03e93ff9f4daa797ed6e38ed64bf6a1f01000000000000000083816116c4576116c3612372565b5b0492506040810190505b6d04ee2d6d415b85acef8100000000831061170b576d04ee2d6d415b85acef8100000000838161170157611700612372565b5b0492506020810190505b662386f26fc10000831061173a57662386f26fc1000083816117305761172f612372565b5b0492506010810190505b6305f5e1008310611763576305f5e100838161175957611758612372565b5b0492506008810190505b612710831061178857612710838161177e5761177d612372565b5b0492506004810190505b606483106117ab57606483816117a1576117a0612372565b5b0492506002810190505b600a83106117ba576001810190505b80915050919050565b6000604051905090565b600080fd5b600080fd5b60007fffffffff0000000000000000000000000000000000000000000000000000000082169050919050565b61180c816117d7565b811461181757600080fd5b50565b60008135905061182981611803565b92915050565b600060208284031215611845576118446117cd565b5b60006118538482850161181a565b91505092915050565b60008115159050919050565b6118718161185c565b82525050565b600060208201905061188c6000830184611868565b92915050565b600081519050919050565b600082825260208201905092915050565b60005b838110156118cc5780820151818401526020810190506118b1565b60008484015250505050565b6000601f19601f8301169050919050565b60006118f482611892565b6118fe818561189d565b935061190e8185602086016118ae565b611917816118d8565b840191505092915050565b6000602082019050818103600083015261193c81846118e9565b905092915050565b6000819050919050565b61195781611944565b811461196257600080fd5b50565b6000813590506119748161194e565b92915050565b6000602082840312156119905761198f6117cd565b5b600061199e84828501611965565b91505092915050565b600073ffffffffffffffffffffffffffffffffffffffff82169050919050565b60006119d2826119a7565b9050919050565b6119e2816119c7565b82525050565b60006020820190506119fd60008301846119d9565b92915050565b611a0c816119c7565b8114611a1757600080fd5b50565b600081359050611a2981611a03565b92915050565b60008060408385031215611a4657611a456117cd565b5b6000611a5485828601611a1a565b9250506020611a6585828601611965565b9150509250929050565b600080600060608486031215611a8857611a876117cd565b5b6000611a9686828701611a1a565b9350506020611aa786828701611a1a565b9250506040611ab886828701611965565b9150509250925092565b600060208284031215611ad857611ad76117cd565b5b6000611ae684828501611a1a565b91505092915050565b611af881611944565b82525050565b6000602082019050611b136000830184611aef565b92915050565b611b228161185c565b8114611b2d57600080fd5b50565b600081359050611b3f81611b19565b92915050565b60008060408385031215611b5c57611b5b6117cd565b5b6000611b6a85828601611a1a565b9250506020611b7b85828601611b30565b9150509250929050565b600080fd5b600080fd5b7f4e487b7100000000000000000000000000000000000000000000000000000000600052604160045260246000fd5b611bc7826118d8565b810181811067ffffffffffffffff82111715611be657611be5611b8f565b5b80604052505050565b6000611bf96117c3565b9050611c058282611bbe565b919050565b600067ffffffffffffffff821115611c2557611c24611b8f565b5b611c2e826118d8565b9050602081019050919050565b82818337600083830152505050565b6000611c5d611c5884611c0a565b611bef565b905082815260208101848484011115611c7957611c78611b8a565b5b611c84848285611c3b565b509392505050565b600082601f830112611ca157611ca0611b85565b5b8135611cb1848260208601611c4a565b91505092915050565b60008060008060808587031215611cd457611cd36117cd565b5b6000611ce287828801611a1a565b9450506020611cf387828801611a1a565b9350506040611d0487828801611965565b925050606085013567ffffffffffffffff811115611d2557611d246117d2565b5b611d3187828801611c8c565b91505092959194509250565b600067ffffffffffffffff821115611d5857611d57611b8f565b5b611d61826118d8565b9050602081019050919050565b6000611d81611d7c84611d3d565b611bef565b905082815260208101848484011115611d9d57611d9c611b8a565b5b611da8848285611c3b565b509392505050565b600082601f830112611dc557611dc4611b85565b5b8135611dd5848260208601611d6e565b91505092915050565b60008060408385031215611df557611df46117cd565b5b6000611e0385828601611a1a565b925050602083013567ffffffffffffffff811115611e2457611e236117d2565b5b611e3085828601611db0565b9150509250929050565b60008060408385031215611e5157611e506117cd565b5b6000611e5f85828601611a1a565b9250506020611e7085828601611a1a565b9150509250929050565b7f4e487b7100000000000000000000000000000000000000000000000000000000600052602260045260246000fd5b60006002820490506001821680611ec157607f821691505b602082108103611ed457611ed3611e7a565b5b50919050565b6000606082019050611eef60008301866119d9565b611efc6020830185611aef565b611f0960408301846119d9565b949350505050565b600081905092915050565b6000611f2782611892565b611f318185611f11565b9350611f418185602086016118ae565b80840191505092915050565b6000611f598285611f1c565b9150611f658284611f1c565b91508190509392505050565b7f4e487b7100000000000000000000000000000000000000000000000000000000600052601160045260246000fd5b6000611fab82611944565b91507fffffffffffffffffffffffffffffffffffffffffffffffffffffffffffffffff8203611fdd57611fdc611f71565b5b600182019050919050565b600081519050919050565b600082825260208201905092915050565b600061200f82611fe8565b6120198185611ff3565b93506120298185602086016118ae565b612032816118d8565b840191505092915050565b600060808201905061205260008301876119d9565b61205f60208301866119d9565b61206c6040830185611aef565b818103606083015261207e8184612004565b905095945050505050565b60008151905061209881611803565b92915050565b6000602082840312156120b4576120b36117cd565b5b60006120c284828501612089565b91505092915050565b60008190508160005260206000209050919050565b60006020601f8301049050919050565b600082821b905092915050565b60006008830261212d7fffffffffffffffffffffffffffffffffffffffffffffffffffffffffffffffff826120f0565b61213786836120f0565b95508019841693508086168417925050509392505050565b6000819050919050565b600061217461216f61216a84611944565b61214f565b611944565b9050919050565b6000819050919050565b61218e83612159565b6121a261219a8261217b565b8484546120fd565b825550505050565b600090565b6121b76121aa565b6121c2818484612185565b505050565b5b818110156121e6576121db6000826121af565b6001810190506121c8565b5050565b601f82111561222b576121fc816120cb565b612205846120e0565b81016020851015612214578190505b612228612220856120e0565b8301826121c7565b50505b505050565b600082821c905092915050565b600061224e60001984600802612230565b1980831691505092915050565b6000612267838361223d565b9150826002028217905092915050565b61228082611892565b67ffffffffffffffff81111561229957612298611b8f565b5b6122a38254611ea9565b6122ae8282856121ea565b600060209050601f8311600181146122e157600084156122cf578287015190505b6122d9858261225b565b865550612341565b601f1984166122ef866120cb565b60005b82811015612317578489015182556001820191506020850194506020810190506122f2565b868310156123345784890151612330601f89168261223d565b8355505b6001600288020188555050505b505050505050565b600060408201905061235e60008301856119d9565b61236b6020830184611aef565b9392505050565b7f4e487b7100000000000000000000000000000000000000000000000000000000600052601260045260246000fdfea2646970667358221220687c46ba0d343fd026beaa792956fdda741d178aa59edcc4f4d5774ebb5fc30964736f6c634300081c0033",
  "linkReferences": {},
  "deployedLinkReferences": {}
}