{
  "_format": "hh-sol-artifact-1",
  "contractName": "CardMarketplace",
  "sourceName": "contracts/CardMarketplace.sol",
  "abi": [
    {
      "inputs": [
        {
          "internalType": "address",
          "name": "_coin",
          "type": "address"
        },
        {
          "internalType": "address",
          "name": "_nft",
          "type": "address"
        },
        {
          "internalType": "address",
          "name": "initialOwner",
          "type": "address"
        }
      ],
      "stateMutability": "nonpayable",
      "type": "constructor"
    },
    {
      "inputs": [
        {
          "internalType": "address",
          "name": "owner",
          "type": "address"
        }
      ],
      "name": "OwnableInvalidOwner",
      "type": "error"
    },
    {
      "inputs": [
        {
          "internalType": "address",
          "name": "account",
          "type": "address"
        }
      ],
      "name": "OwnableUnauthorizedAccount",
      "type": "error"
    },
    {
      "anonymous": false,
      "inputs": [
        {
          "indexed": true,
          "internalType": "address",
          "name": "previousOwner",
          "type": "address"
        },
        {
          "indexed": true,
          "internalType": "address",
          "name": "newOwner",
          "type": "address"
        }
      ],
      "name": "OwnershipTransferred",
      "type": "event"
    },
    {
      "inputs": [
        {
          "internalType": "uint256",
          "name": "price",
          "type": "uint256"
        },
        {
          "internalType": "string",
          "name": "tokenURI",
          "type": "string"
        }
      ],
      "name": "buyCard",
      "outputs": [],
      "stateMutability": "nonpayable",
      "type": "function"
    },
    {
      "inputs": [],
      "name": "coin",
      "outputs": [
        {
          "internalType": "contract PlutoCoin",
          "name": "",
          "type": "address"
        }
      ],
      "stateMutability": "view",
      "type": "function"
    },
    {
      "inputs": [],
      "name": "nft",
      "outputs": [
        {
          "internalType": "contract BattleCardNFT",
          "name": "",
          "type": "address"
        }
      ],
      "stateMutability": "view",
      "type": "function"
    },
    {
      "inputs": [],
      "name": "owner",
      "outputs": [
        {
          "internalType": "address",
          "name": "",
          "type": "address"
        }
      ],
      "stateMutability": "view",
      "type": "function"
    },
    {
      "inputs": [],
      "name": "renounceOwnership",
      "outputs": [],
      "stateMutability": "nonpayable",
      "type": "function"
    },
    {
      "inputs": [
        {
          "internalType": "address",
          "name": "_nft",
          "type": "address"
        }
      ],
      "name": "setNFT",
      "outputs": [],
      "stateMutability": "nonpayable",
      "type": "function"
    },
    {
      "inputs": [
        {
          "internalType": "address",
          "name": "_coin",
          "type": "address"
        }
      ],
      "name": "setToken",
      "outputs": [],
      "stateMutability": "nonpayable",
      "type": "function"
    },
    {
      "inputs": [
        {
          "internalType": "address",
          "name": "newOwner",
          "type": "address"
        }
      ],
      "name": "transferOwnership",
      "outputs": [],
      "stateMutability": "nonpayable",
      "type": "function"
    },
    {
      "inputs": [
        {
          "internalType": "address",
          "name": "to",
          "type": "address"
        }
      ],
      "name": "withdrawCoins",
      "outputs": [],
      "stateMutability": "nonpayable",
      "type": "function"
    }
  ],
  "bytecode": "0x608060405234801561001057600080fd5b5060405161114238038061114283398181016040528101906100329190610266565b80600073ffffffffffffffffffffffffffffffffffffffff168173ffffffffffffffffffffffffffffffffffffffff16036100a55760006040517f1e4fbdf700000000000000000000000000000000000000000000000000000000815260040161009c91906102c8565b60405180910390fd5b6100b48161013f60201b60201c565b5082600160006101000a81548173ffffffffffffffffffffffffffffffffffffffff021916908373ffffffffffffffffffffffffffffffffffffffff16021790555081600260006101000a81548173ffffffffffffffffffffffffffffffffffffffff021916908373ffffffffffffffffffffffffffffffffffffffff1602179055505050506102e3565b60008060009054906101000a900473ffffffffffffffffffffffffffffffffffffffff169050816000806101000a81548173ffffffffffffffffffffffffffffffffffffffff021916908373ffffffffffffffffffffffffffffffffffffffff1602179055508173ffffffffffffffffffffffffffffffffffffffff168173ffffffffffffffffffffffffffffffffffffffff167f8be0079c531659141344cd1fd0a4f28419497f9722a3daafe3b4186f6b6457e060405160405180910390a35050565b600080fd5b600073ffffffffffffffffffffffffffffffffffffffff82169050919050565b600061023382610208565b9050919050565b61024381610228565b811461024e57600080fd5b50565b6000815190506102608161023a565b92915050565b60008060006060848603121561027f5761027e610203565b5b600061028d86828701610251565b935050602061029e86828701610251565b92505060406102af86828701610251565b9150509250925092565b6102c281610228565b82525050565b60006020820190506102dd60008301846102b9565b92915050565b610e50806102f26000396000f3fe608060405234801561001057600080fd5b50600436106100935760003560e01c806369a346531161006657806369a346531461010c578063715018a6146101285780638da5cb5b14610132578063f2fde38b14610150578063f56e9c661461016c57610093565b806311df999514610098578063144fa6d7146100b657806347ccca02146100d25780635ffbdf10146100f0575b600080fd5b6100a0610188565b6040516100ad91906108a5565b60405180910390f35b6100d060048036038101906100cb9190610912565b6101ae565b005b6100da6101fa565b6040516100e79190610960565b60405180910390f35b61010a60048036038101906101059190610912565b610220565b005b61012660048036038101906101219190610af7565b6103b0565b005b6101306105c4565b005b61013a6105d8565b6040516101479190610b62565b60405180910390f35b61016a60048036038101906101659190610912565b610601565b005b61018660048036038101906101819190610912565b610687565b005b600160009054906101000a900473ffffffffffffffffffffffffffffffffffffffff1681565b6101b66106d3565b80600160006101000a81548173ffffffffffffffffffffffffffffffffffffffff021916908373ffffffffffffffffffffffffffffffffffffffff16021790555050565b600260009054906101000a900473ffffffffffffffffffffffffffffffffffffffff1681565b6102286106d3565b6000600160009054906101000a900473ffffffffffffffffffffffffffffffffffffffff1673ffffffffffffffffffffffffffffffffffffffff166370a08231306040518263ffffffff1660e01b81526004016102859190610b62565b602060405180830381865afa1580156102a2573d6000803e3d6000fd5b505050506040513d601f19601f820116820180604052508101906102c69190610b92565b90506000811161030b576040517f08c379a000000000000000000000000000000000000000000000000000000000815260040161030290610c1c565b60405180910390fd5b600160009054906101000a900473ffffffffffffffffffffffffffffffffffffffff1673ffffffffffffffffffffffffffffffffffffffff1663a9059cbb83836040518363ffffffff1660e01b8152600401610368929190610c4b565b6020604051808303816000875af1158015610387573d6000803e3d6000fd5b505050506040513d601f19601f820116820180604052508101906103ab9190610cac565b505050565b81600160009054906101000a900473ffffffffffffffffffffffffffffffffffffffff1673ffffffffffffffffffffffffffffffffffffffff166370a08231336040518263ffffffff1660e01b815260040161040c9190610b62565b602060405180830381865afa158015610429573d6000803e3d6000fd5b505050506040513d601f19601f8201168201806040525081019061044d9190610b92565b101561048e576040517f08c379a000000000000000000000000000000000000000000000000000000000815260040161048590610d25565b60405180910390fd5b600160009054906101000a900473ffffffffffffffffffffffffffffffffffffffff1673ffffffffffffffffffffffffffffffffffffffff166323b872dd3330856040518463ffffffff1660e01b81526004016104ed93929190610d45565b6020604051808303816000875af115801561050c573d6000803e3d6000fd5b505050506040513d601f19601f820116820180604052508101906105309190610cac565b50600260009054906101000a900473ffffffffffffffffffffffffffffffffffffffff1673ffffffffffffffffffffffffffffffffffffffff1663d0def52133836040518363ffffffff1660e01b815260040161058e929190610dea565b600060405180830381600087803b1580156105a857600080fd5b505af11580156105bc573d6000803e3d6000fd5b505050505050565b6105cc6106d3565b6105d6600061075a565b565b60008060009054906101000a900473ffffffffffffffffffffffffffffffffffffffff16905090565b6106096106d3565b600073ffffffffffffffffffffffffffffffffffffffff168173ffffffffffffffffffffffffffffffffffffffff160361067b5760006040517f1e4fbdf70000000000000000000000000000000000000000000000000000000081526004016106729190610b62565b60405180910390fd5b6106848161075a565b50565b61068f6106d3565b80600260006101000a81548173ffffffffffffffffffffffffffffffffffffffff021916908373ffffffffffffffffffffffffffffffffffffffff16021790555050565b6106db61081e565b73ffffffffffffffffffffffffffffffffffffffff166106f96105d8565b73ffffffffffffffffffffffffffffffffffffffff16146107585761071c61081e565b6040517f118cdaa700000000000000000000000000000000000000000000000000000000815260040161074f9190610b62565b60405180910390fd5b565b60008060009054906101000a900473ffffffffffffffffffffffffffffffffffffffff169050816000806101000a81548173ffffffffffffffffffffffffffffffffffffffff021916908373ffffffffffffffffffffffffffffffffffffffff1602179055508173ffffffffffffffffffffffffffffffffffffffff168173ffffffffffffffffffffffffffffffffffffffff167f8be0079c531659141344cd1fd0a4f28419497f9722a3daafe3b4186f6b6457e060405160405180910390a35050565b600033905090565b600073ffffffffffffffffffffffffffffffffffffffff82169050919050565b6000819050919050565b600061086b61086661086184610826565b610846565b610826565b9050919050565b600061087d82610850565b9050919050565b600061088f82610872565b9050919050565b61089f81610884565b82525050565b60006020820190506108ba6000830184610896565b92915050565b6000604051905090565b600080fd5b600080fd5b60006108df82610826565b9050919050565b6108ef816108d4565b81146108fa57600080fd5b50565b60008135905061090c816108e6565b92915050565b600060208284031215610928576109276108ca565b5b6000610936848285016108fd565b91505092915050565b600061094a82610872565b9050919050565b61095a8161093f565b82525050565b60006020820190506109756000830184610951565b92915050565b6000819050919050565b61098e8161097b565b811461099957600080fd5b50565b6000813590506109ab81610985565b92915050565b600080fd5b600080fd5b6000601f19601f8301169050919050565b7f4e487b7100000000000000000000000000000000000000000000000000000000600052604160045260246000fd5b610a04826109bb565b810181811067ffffffffffffffff82111715610a2357610a226109cc565b5b80604052505050565b6000610a366108c0565b9050610a4282826109fb565b919050565b600067ffffffffffffffff821115610a6257610a616109cc565b5b610a6b826109bb565b9050602081019050919050565b82818337600083830152505050565b6000610a9a610a9584610a47565b610a2c565b905082815260208101848484011115610ab657610ab56109b6565b5b610ac1848285610a78565b509392505050565b600082601f830112610ade57610add6109b1565b5b8135610aee848260208601610a87565b91505092915050565b60008060408385031215610b0e57610b0d6108ca565b5b6000610b1c8582860161099c565b925050602083013567ffffffffffffffff811115610b3d57610b3c6108cf565b5b610b4985828601610ac9565b9150509250929050565b610b5c816108d4565b82525050565b6000602082019050610b776000830184610b53565b92915050565b600081519050610b8c81610985565b92915050565b600060208284031215610ba857610ba76108ca565b5b6000610bb684828501610b7d565b91505092915050565b600082825260208201905092915050565b7f4e6f20636f696e7320746f207769746864726177000000000000000000000000600082015250565b6000610c06601483610bbf565b9150610c1182610bd0565b602082019050919050565b60006020820190508181036000830152610c3581610bf9565b9050919050565b610c458161097b565b82525050565b6000604082019050610c606000830185610b53565b610c6d6020830184610c3c565b9392505050565b60008115159050919050565b610c8981610c74565b8114610c9457600080fd5b50565b600081519050610ca681610c80565b92915050565b600060208284031215610cc257610cc16108ca565b5b6000610cd084828501610c97565b91505092915050565b7f4e6f7420656e6f75676820636f696e7300000000000000000000000000000000600082015250565b6000610d0f601083610bbf565b9150610d1a82610cd9565b602082019050919050565b60006020820190508181036000830152610d3e81610d02565b9050919050565b6000606082019050610d5a6000830186610b53565b610d676020830185610b53565b610d746040830184610c3c565b949350505050565b600081519050919050565b60005b83811015610da5578082015181840152602081019050610d8a565b60008484015250505050565b6000610dbc82610d7c565b610dc68185610bbf565b9350610dd6818560208601610d87565b610ddf816109bb565b840191505092915050565b6000604082019050610dff6000830185610b53565b8181036020830152610e118184610db1565b9050939250505056fea264697066735822122013c7bd125f74daed0f248381478c122c715515bf12c9127a2bcfa5d6d786fd4b64736f6c634300081c0033",
  "linkReferences": {},
  "deployedLinkReferences": {}
}