{
  "_format": "hh-sol-artifact-1",
  "contractName": "PlutoCoinStore",
  "sourceName": "contracts/PlutoCoinStore.sol",
  "abi": [
    {
      "inputs": [
        {
          "internalType": "address",
          "name": "_token",
          "type": "address"
        },
        {
          "internalType": "address payable",
          "name": "_treasury",
          "type": "address"
        },
        {
          "internalType": "address",
          "name": "initialOwner",
          "type": "address"
        }
      ],
      "stateMutability": "nonpayable",
      "type": "constructor"
    },
    {
      "inputs": [
        {
          "internalType": "address",
          "name": "owner",
          "type": "address"
        }
      ],
      "name": "OwnableInvalidOwner",
      "type": "error"
    },
    {
      "inputs": [
        {
          "internalType": "address",
          "name": "account",
          "type": "address"
        }
      ],
      "name": "OwnableUnauthorizedAccount",
      "type": "error"
    },
    {
      "anonymous": false,
      "inputs": [
        {
          "indexed": true,
          "internalType": "address",
          "name": "previousOwner",
          "type": "address"
        },
        {
          "indexed": true,
          "internalType": "address",
          "name": "newOwner",
          "type": "address"
        }
      ],
      "name": "OwnershipTransferred",
      "type": "event"
    },
    {
      "inputs": [],
      "name": "buyCoins",
      "outputs": [],
      "stateMutability": "payable",
      "type": "function"
    },
    {
      "inputs": [],
      "name": "owner",
      "outputs": [
        {
          "internalType": "address",
          "name": "",
          "type": "address"
        }
      ],
      "stateMutability": "view",
      "type": "function"
    },
    {
      "inputs": [],
      "name": "renounceOwnership",
      "outputs": [],
      "stateMutability": "nonpayable",
      "type": "function"
    },
    {
      "inputs": [
        {
          "internalType": "address",
          "name": "_token",
          "type": "address"
        }
      ],
      "name": "setToken",
      "outputs": [],
      "stateMutability": "nonpayable",
      "type": "function"
    },
    {
      "inputs": [
        {
          "internalType": "address payable",
          "name": "_treasury",
          "type": "address"
        }
      ],
      "name": "setTreasury",
      "outputs": [],
      "stateMutability": "nonpayable",
      "type": "function"
    },
    {
      "inputs": [],
      "name": "token",
      "outputs": [
        {
          "internalType": "contract PlutoCoin",
          "name": "",
          "type": "address"
        }
      ],
      "stateMutability": "view",
      "type": "function"
    },
    {
      "inputs": [
        {
          "internalType": "address",
          "name": "newOwner",
          "type": "address"
        }
      ],
      "name": "transferOwnership",
      "outputs": [],
      "stateMutability": "nonpayable",
      "type": "function"
    },
    {
      "inputs": [],
      "name": "treasury",
      "outputs": [
        {
          "internalType": "address payable",
          "name": "",
          "type": "address"
        }
      ],
      "stateMutability": "view",
      "type": "function"
    }
  ],
  "bytecode": "0x608060405234801561001057600080fd5b50604051610cc1380380610cc1833981810160405281019061003291906102a4565b80600073ffffffffffffffffffffffffffffffffffffffff168173ffffffffffffffffffffffffffffffffffffffff16036100a55760006040517f1e4fbdf700000000000000000000000000000000000000000000000000000000815260040161009c9190610306565b60405180910390fd5b6100b48161013f60201b60201c565b5082600160006101000a81548173ffffffffffffffffffffffffffffffffffffffff021916908373ffffffffffffffffffffffffffffffffffffffff16021790555081600260006101000a81548173ffffffffffffffffffffffffffffffffffffffff021916908373ffffffffffffffffffffffffffffffffffffffff160217905550505050610321565b60008060009054906101000a900473ffffffffffffffffffffffffffffffffffffffff169050816000806101000a81548173ffffffffffffffffffffffffffffffffffffffff021916908373ffffffffffffffffffffffffffffffffffffffff1602179055508173ffffffffffffffffffffffffffffffffffffffff168173ffffffffffffffffffffffffffffffffffffffff167f8be0079c531659141344cd1fd0a4f28419497f9722a3daafe3b4186f6b6457e060405160405180910390a35050565b600080fd5b600073ffffffffffffffffffffffffffffffffffffffff82169050919050565b600061023382610208565b9050919050565b61024381610228565b811461024e57600080fd5b50565b6000815190506102608161023a565b92915050565b600061027182610208565b9050919050565b61028181610266565b811461028c57600080fd5b50565b60008151905061029e81610278565b92915050565b6000806000606084860312156102bd576102bc610203565b5b60006102cb86828701610251565b93505060206102dc8682870161028f565b92505060406102ed86828701610251565b9150509250925092565b61030081610228565b82525050565b600060208201905061031b60008301846102f7565b92915050565b610991806103306000396000f3fe60806040526004361061007b5760003560e01c80639a777d5d1161004e5780639a777d5d14610116578063f0f4426014610120578063f2fde38b14610149578063fc0c546a146101725761007b565b8063144fa6d71461008057806361d027b3146100a9578063715018a6146100d45780638da5cb5b146100eb575b600080fd5b34801561008c57600080fd5b506100a760048036038101906100a29190610665565b61019d565b005b3480156100b557600080fd5b506100be6101e9565b6040516100cb91906106b3565b60405180910390f35b3480156100e057600080fd5b506100e961020f565b005b3480156100f757600080fd5b50610100610223565b60405161010d91906106dd565b60405180910390f35b61011e61024c565b005b34801561012c57600080fd5b5061014760048036038101906101429190610724565b6103b7565b005b34801561015557600080fd5b50610170600480360381019061016b9190610665565b610403565b005b34801561017e57600080fd5b50610187610489565b60405161019491906107b0565b60405180910390f35b6101a56104af565b80600160006101000a81548173ffffffffffffffffffffffffffffffffffffffff021916908373ffffffffffffffffffffffffffffffffffffffff16021790555050565b600260009054906101000a900473ffffffffffffffffffffffffffffffffffffffff1681565b6102176104af565b6102216000610536565b565b60008060009054906101000a900473ffffffffffffffffffffffffffffffffffffffff16905090565b6601c6bf52634000341015610296576040517f08c379a000000000000000000000000000000000000000000000000000000000815260040161028d90610828565b60405180910390fd5b6000670de0b6b3a764000062027100346102b09190610881565b6102ba91906108f2565b9050600160009054906101000a900473ffffffffffffffffffffffffffffffffffffffff1673ffffffffffffffffffffffffffffffffffffffff166340c10f1933836040518363ffffffff1660e01b8152600401610319929190610932565b600060405180830381600087803b15801561033357600080fd5b505af1158015610347573d6000803e3d6000fd5b50505050600260009054906101000a900473ffffffffffffffffffffffffffffffffffffffff1673ffffffffffffffffffffffffffffffffffffffff166108fc349081150290604051600060405180830381858888f193505050501580156103b3573d6000803e3d6000fd5b5050565b6103bf6104af565b80600260006101000a81548173ffffffffffffffffffffffffffffffffffffffff021916908373ffffffffffffffffffffffffffffffffffffffff16021790555050565b61040b6104af565b600073ffffffffffffffffffffffffffffffffffffffff168173ffffffffffffffffffffffffffffffffffffffff160361047d5760006040517f1e4fbdf700000000000000000000000000000000000000000000000000000000815260040161047491906106dd565b60405180910390fd5b61048681610536565b50565b600160009054906101000a900473ffffffffffffffffffffffffffffffffffffffff1681565b6104b76105fa565b73ffffffffffffffffffffffffffffffffffffffff166104d5610223565b73ffffffffffffffffffffffffffffffffffffffff1614610534576104f86105fa565b6040517f118cdaa700000000000000000000000000000000000000000000000000000000815260040161052b91906106dd565b60405180910390fd5b565b60008060009054906101000a900473ffffffffffffffffffffffffffffffffffffffff169050816000806101000a81548173ffffffffffffffffffffffffffffffffffffffff021916908373ffffffffffffffffffffffffffffffffffffffff1602179055508173ffffffffffffffffffffffffffffffffffffffff168173ffffffffffffffffffffffffffffffffffffffff167f8be0079c531659141344cd1fd0a4f28419497f9722a3daafe3b4186f6b6457e060405160405180910390a35050565b600033905090565b600080fd5b600073ffffffffffffffffffffffffffffffffffffffff82169050919050565b600061063282610607565b9050919050565b61064281610627565b811461064d57600080fd5b50565b60008135905061065f81610639565b92915050565b60006020828403121561067b5761067a610602565b5b600061068984828501610650565b91505092915050565b600061069d82610607565b9050919050565b6106ad81610692565b82525050565b60006020820190506106c860008301846106a4565b92915050565b6106d781610627565b82525050565b60006020820190506106f260008301846106ce565b92915050565b61070181610692565b811461070c57600080fd5b50565b60008135905061071e816106f8565b92915050565b60006020828403121561073a57610739610602565b5b60006107488482850161070f565b91505092915050565b6000819050919050565b600061077661077161076c84610607565b610751565b610607565b9050919050565b60006107888261075b565b9050919050565b600061079a8261077d565b9050919050565b6107aa8161078f565b82525050565b60006020820190506107c560008301846107a1565b92915050565b600082825260208201905092915050565b7f4d696e696d756d3a20302e303030352045544800000000000000000000000000600082015250565b60006108126013836107cb565b915061081d826107dc565b602082019050919050565b6000602082019050818103600083015261084181610805565b9050919050565b6000819050919050565b7f4e487b7100000000000000000000000000000000000000000000000000000000600052601160045260246000fd5b600061088c82610848565b915061089783610848565b92508282026108a581610848565b915082820484148315176108bc576108bb610852565b5b5092915050565b7f4e487b7100000000000000000000000000000000000000000000000000000000600052601260045260246000fd5b60006108fd82610848565b915061090883610848565b925082610918576109176108c3565b5b828204905092915050565b61092c81610848565b82525050565b600060408201905061094760008301856106ce565b6109546020830184610923565b939250505056fea2646970667358221220413f6c34e5a12272edd33343b9ba2dfa16c539447d4478719129d6abaa02916c64736f6c634300081c0033",
  "linkReferences": {},
  "deployedLinkReferences": {}
}